:020000040000FA
:10000000E80320208D010000910100009301000011
:1000100000000000000000000000000000000000E0
:10002000000000000000000000000000950100003A
:10003000000000000000000097010000990100008E
:100040009B0100008D0500009B0100009B0100004A
:100050009B0100009B0100009B0100009B01000030
:10006000000000009B0100009B0100000000000058
:10007000000000009B0100009B01000095120000A1
:100080009B0100009B0100009B010000A50B0000EC
:100090009B0100009B010000000000000000000028
:1000A0009B0100009B010000000000000000000018
:1000B0009B010000000000009B0100009B0100006C
:1000C00000F002F800F052F812A030C808382418E6
:1000D0002D18AC4201D100F049F80FCCA246AB4636
:1000E0000CA730CF2D1B083F3F197C427F1E544484
:1000F0002D090426F441641EAC4201D300F036F809
:100100000126334200D0FB1A3343984754465D46DC
:10011000DFE700009C150000BC1500000000000097
:10012000103A02D378C878C1FAD8520701D330C840
:1001300030C101D504680C60704700000000000069
:100140007047000000000000002300240025002666
:10015000103A01D378C1FBD8520700D330C100D583
:100160000B6070471FB51FBD10B510BD00F096F8AD
:100170001146FFF7F7FF01F015F900F0AEF803B4F0
:10018000FFF7F2FF03BC01F0B3F800000648004798
:10019000FEE7FEE7FEE7FEE7FEE7FEE70348044969
:1001A000024A044B70470000C1000000E802202012
:1001B000E8032020E802202010B5044603E001F007
:1001C000DFF8401C08D020780549641C0028F6D1CF
:1001D0000A2001F0D5F810BD0020C04310BD00007A
:1001E000B800202070477047704710B501469E2424
:1001F0000002CA15A307002A02D01843002A04DB14
:10020000A21A002A0CDDD04010BD1206120E01D138
:1002100040004008A21A03D4D04040420028F3DD39
:10022000FF2248001206904201D9002010BDC817D5
:10023000C043584010BD1F22030C02D10F220004FE
:100240001CD0030E01D10002083A030F01D10001B6
:10025000121F830F01D18000921E002801DB400095
:10026000521ED2055118021251181922904004D37F
:10027000491C002801D14908490008467047C10FB0
:10028000C90700D04042012292071143D3E7012160
:100290008907D0E700487047100020207546FFF717
:1002A000F9FFAE46050069465346C008C0008546C2
:1002B00018B020B5FFF772FF60BCB64600260027D5
:1002C000C0C5C0C5C0C5C0C5C0C5C0C5C0C5C0C506
:1002D000403D490849008D46704710B50446C04668
:1002E000C0462046FFF74BFF10BD00000148042127
:1002F0000160704790320A40014804210160704754
:10030000A0320A40811E091F00BFFCD270470000C6
:10031000F0B584B06B4A82180292734BC618784BC2
:10032000C21800922A4BC4180A7901910D68294F0E
:10033000202A03920AD0254BC018002A17D16B1E21
:10034000029A536023683B40882517E0681E029A92
:10035000506020683840204B184320606068384067
:1003600018436060012045071C4F104608E06B08E9
:10037000029A536023683B400525ED012B4323601F
:10038000009903683B402B43036030684F4B184093
:1003900030607068184070600020086048608F20EE
:1003A000C04323690340236163690340636101988B
:1003B000407903990843BD2101401068084B034070
:1003C000C818801C106004B0F0BDC046741800004E
:1003D0007018000024F93FF001040000FFFFFFCF78
:1003E0004000FFCF70B5374A82184B6853603E4BD0
:1003F000C3180878222857D8840001A52C59A7468D
:100400009F040000A90400009F040000A90400004C
:10041000A9040000A9040000A9040000A904000028
:10042000A9040000A9040000A9040000A904000018
:10043000A9040000A9040000A9040000A904000008
:100440008D040000A90400008D040000A904000030
:10045000A9040000A9040000A9040000A9040000E8
:10046000A9040000A9040000A9040000A9040000D8
:10047000A9040000A9040000A9040000A9040000C8
:100480008D040000A90400008D040000032424074B
:100490001568A543012464072C19146004E00324A3
:1004A00024071568A54315600C8AD460CC68064DF6
:1004B00025401C68054E264074191C60097A0143CA
:1004C000116070BD04180000777702008888FDFF76
:1004D00010B507239B04194092008018024A8458E3
:1004E0009C436118815010BD3018000010B5029C6B
:1004F000A400001911431943014A815010BDC046A0
:100500005018000092008018014A81507047C04680
:100510001018000010B50122120383180C789C609B
:100520004B7883508978014A815010BD0C1100002E
:10053000B0B51122120283580124A34383508B7853
:100540000C881C438B882343094C1C408358094D5D
:100550001D402B1983508B79CC791C43097A214398
:100560007E231940801842689A4351184160B0BDFB
:1005700018670000E798FDFF10B5012212038318E9
:100580000C789C604978815010BD0000F0B581B0B6
:100590000127BD04304A1046103804682C4000681A
:1005A000C0022E4B03D4002C2CD101B0F0BD3E056F
:1005B00038061968314202D01968014214D019680E
:1005C000314202D1196801420ED11968314202D07C
:1005D0001968014205D1196831420ED119680142EA
:1005E0000BD17F20C10500E01D491E48006800F0C6
:1005F00033FF1C490860184A184B106830431060DC
:10060000002CD2D0F8041968294202D0196801429E
:1006100014D01968294202D1196801420ED1196813
:10062000294202D01968014205D1196829420ED128
:10063000196801420BD11646094902E016467F208F
:10064000C105094C206800F007FF206032461068A1
:100650002843106001B0F0BD48300A4080330A40A2
:10066000000080BF740020208C00202070B5012580
:10067000304C2068000401D4002013E0EE03142065
:1006800000F05AFE2068304208D02068304205D081
:100690002068304202D020683042F3D1142000F0AC
:1006A0004BFE28462168C90313D52D04142000F001
:1006B00043FE2068284208D02068284205D02068E0
:1006C000284202D020682842F3D1142000F034FEE2
:1006D000022001252168890313D56E04142000F03F
:1006E0002BFE2068304208D02068304205D02068B8
:1006F000304202D020683042F3D1142000F01CFEBA
:1007000003202168490313D5AD04142000F014FE22
:100710002068284208D02068284205D02068284256
:1007200002D020682842F3D1142000F005FE0420F6
:1007300070BDC04680130A40012040050149086091
:100740007047C046A0120A400120400518490860C1
:100750007047C046F0B581B00C46154E374610378D
:100760000028314600DC394601252A070A600028A6
:10077000394600DC3146EA070A60C1174840411A91
:10078000AB480022FFF7BEFE002C304600DC3846A6
:1007900029060160002C00DC374668063860E01747
:1007A0004440211AA2482A46FFF7ACFE01B0F0BD32
:1007B00090120A4010B5084C08492046FFF7AAFEDF
:1007C00007492046FFF70EFE064801680122114343
:1007D00001600548026010BD0020864064160000DC
:1007E00068160000283086400831864070B52E4BD0
:1007F0008720586601218C062C4A14609866C8062A
:1008000010602B4C822020652A4D6565A064E5644C
:10081000D8645D6328481863284DA563284D9D6101
:10082000DD601D615D618126266066601E605E6020
:100830009D60A66066611E655E659D639D649D62A8
:10084000DD62A5616563E563A565E5651346303B3B
:100850001C4C1C601346403B1B4C1C601B4B136024
:100860000A071B4B1C6814431C601A6910241443AC
:100870001C618903174A136A0B43136213680B4305
:100880001360154904220A600A63CF3013490A68CD
:1008900002430A604720800411490A6A02430A623F
:1008A0000A6802430A6070BD88804240D0120A4044
:1008B00004804240820004008100010081000200A7
:1008C00081000500000020930330000003302093D6
:1008D00090130A4028100A40A0320A40A0330A4070
:1008E00028300A4010B5154C15492046FFF744FE44
:1008F00014492046FFF71CFE0320C103124802687A
:100900008A43026001697D4A0A40911C0161416984
:100910000B220A4334218A4342614168012211407B
:1009200043689343591841609102084B1C680C437B
:100930001C6001681143016010BDC04600001040FA
:100940007C1600007E160000001110402810104098
:1009500010B5154C15492046FFF70EFE14492046E8
:10096000FFF7E6FD0320C103124802688A430260D4
:100970000169624A0A40911C016141690B220A43E4
:1009800034218A4342614168012211404368934304
:10099000591841609102084B1C680C431C600168A7
:1009A0001143016010BDC0460020104088160000B1
:1009B0008A1600000031104028301040F0B581B098
:1009C0001B4C1C492046FFF7A5FD1B492046FFF79D
:1009D0009FFC1920C6010025204631462A46FFF714
:1009E00091FD00951027204629463A462B46FFF7F1
:1009F0007DFD204629462A46FFF76AFD01240C4862
:100A000031462246FFF77EFD0094094806462946F6
:100A10003A462B46FFF76AFD304629462246FFF745
:100A200057FD064884600321016001B0F0BDC04657
:100A300000A08640941600009816000000B1864081
:100A40000C48002101600320C1430B480246083ACC
:100A500013680B4013600168012291430160110289
:100A600003688B4303601103001F02680A4302609E
:100A70007047C04608030B4008010B40054804219D
:100A800001601F21416000218160016805220A4345
:100A90000260704710E000E010B5144C1449204685
:100AA000FFF76AFD13492046FFF742FD0321CA0301
:100AB00011480368934303600269104B13401A33D3
:100AC000036142690A433C218A4342614168012231
:100AD000114043689343591841609102084B1C68C8
:100AE0000C431C6001681143016010BD0080104080
:100AF000A0160000A2160000009110400000FFFFA9
:100B00002890104080B500F01DF8FFF76FFEFFF74A
:100B100097FFFFF753FFFFF74DFEFFF7BDFFFFF70E
:100B2000E1FEFFF715FFFFF7A9FFB82003490022F8
:100B30000A54742002490A5480BDC0461001202086
:100B4000CC012020F0B581B00D480E4941600E4A1D
:100B500051600E4B59600E4C61600E4D69600E4E37
:100B600071600E4F79600E4901601160196021605B
:100B70002960316039601020FFF7C4FB01B0F0BD7F
:100B800000080A40030000B100280A4000A886407F
:100B900000288640008810400008104000281040BF
:100BA00001000026F0B583B0ED480568002404601C
:100BB000EC4908680C60FFF718FB0646EA4F3880DE
:100BC0002846FFF712FBE9490880E94B1988891983
:100BD0001980E84A118808181080E7480068012841
:100BE00010D1E64E3068411C316064280ADB15469E
:100BF000FFF7A2FDFFF77AFB2A46DD4B00203060AD
:100C0000DD490860DE4D2868002800D1BEE00228DA
:100C100014D001286AD1185FDA49884200DAB5E0B9
:100C2000D948012606601546FFF78EFDFFF764FBE5
:100C30002A46D34DCE4BD0480660A7E0195FD34F6C
:100C4000D3480068002817D13A46323A914213DD62
:100C5000D04801260660D0480460C64804801C8045
:100C6000FFF772FDFFF748FBC14BC3480660C84958
:100C70000868401C0860198801281ED10AB2C74BB9
:100C80009A42BB4B19DBC3480460C3480460B948AF
:100C900004801C80FFF758FDFFF72EFBB44BC048C3
:100CA0000E2101600120B4490860BE480A2101609C
:100CB000B7490868401C08601988AF22560002280E
:100CC0000AB22ED13346FA339A42A94B29DDB148F4
:100CD0000460B14801210160A64A14801C80B0481C
:100CE0000A210160AF48016003204CE0C01E0128CA
:100CF0004CD8195FA64E3068002800D017E1C929EA
:100D000000DA14E1A3480460A348046014801C8046
:100D1000A3480E210160A3480A2101600120306030
:100D200034E0032819D1A04B64339A42904B14DD70
:100D3000984801250560984804608E4804801C800E
:100D4000FFF702FDFFF7D8FA894B8B4805608C4D01
:100D50008F490868401C08601988042809B2854A30
:100D600000D0CAE06437B94200DCC6E089480460BC
:100D70008948046014801C8089480E2101608948DC
:100D80000A210160052082490860FA4F7E48006808
:100D900001280ED1854804608548046014801C80B9
:100DA000794804602C6083480460F8480460204659
:100DB0009EE02868002811D0F6480068012812D16A
:100DC0000020115E185E401AFFF759FA0146F748F5
:100DD000006800F087FBFFF708FA05E07448046834
:100DE000FC48006884E00020F14C2060E849096874
:100DF000012902D100F0F8F9206802900024385F40
:100E0000E5490968081AFFF73AFA0646E948016811
:100E100001910660D848005FE0490968081AFFF7A9
:100E20002EFA0546E448016800910560E34F3868F2
:100E3000314600F011FB04463860E14F386829461E
:100E400000F00AFB38600746DE480168204600F0E3
:100E500049FB0446DC480068314600F043FB21466C
:100E600000F0FAFA04463046019900F093FB01467F
:100E7000D648006800F036FB214600F0EDFAFFF797
:100E8000B4F97D210E01B04200DB3046D04A9042D9
:100E9000029900DC1046401ACE4901900860CE4805
:100EA0000168384600F01EFB0446CC48006829461D
:100EB00000F018FB214600F0CFFA044628460099BE
:100EC00000F068FB0146C648006800F00BFB2146B5
:100ED00000F0C2FAFFF789F9B04200DB3046BC49A6
:100EE000884200DC084602994418BE480460019814
:100EF0002146FFF72FFC03B0F0BD05289D4F00D021
:100F000044E79636B14200DC40E7A1480460A148BE
:100F10002E460125056014801C80FFF715FCFFF7A5
:100F2000EBF9974A954B97480560354632E7AF2273
:100F30005600012840D13246FA3291423CDD9448B5
:100F400004609448012101608D4A14801C80CF48C0
:100F50000A210160CE48016002208C49086015E733
:100F60008C0020207400202070002020720020209F
:100F70008000202082002020E0022020DC022020AF
:100F8000D80220206D070000D40220206C0700004A
:100F90000C012020E4022020780020209908000085
:100FA000B0002020B4002020DC05000084002020B8
:100FB00088002020D00220200296794F02281BD1E1
:100FC000B94219DD72480460724804606C480480BC
:100FD0001C80FFF7B9FBFFF78FF9684BAB4808217E
:100FE0000160012067490860A9480E210160674936
:100FF0000868401C0860198803280AB213D1029BB4
:1010000032339A425D4B0EDD614801210160614837
:1010100004605B4A14801C809C480A2101609C4843
:1010200001600420AFE604281ED13B46C8339A4233
:10103000524B19DD564804605648046050480480FD
:101040001C80FFF781FBFFF757F94C4B8F480821B5
:10105000016001204B490860FC480E2101604B49AA
:101060000868401C0860198805280AB211D1029E40
:10107000B2420EDD46480460F24801210160404A58
:1010800014801C80F2480A210160F04801600620AB
:1010900079E606281BD1BA4219DD3D480460E948CB
:1010A0000460374804801C80FFF74EFBFFF724F9EB
:1010B000324BE7480E210160012032490860E348C5
:1010C0000821016031490868401C08601988072818
:1010D0000AB2284F12D1334B9A42284B0EDB2C48D0
:1010E00001210160D7480460254A14801C80D8483B
:1010F0000A210160D548016008202EE708281DD18B
:10110000214B9A421D4B19DD21480460CD480460F3
:101110001B4804801C80FFF717FBFFF7EDF8174B07
:10112000CB480E210160012016490860C7480821FC
:10113000016016490868401C086019880928104A8F
:1011400000D023E608B20299884200DC1EE6164869
:101150000168491C0160BF480068814200DB19E654
:101160001C801480BA480A210160B8480160074811
:1011700004600BE6700020207200202080002020F8
:1011800082002020E00220206C0700000C012020BB
:10119000E402202078002020B0002020B40020208D
:1011A000DC05000021030000440220200000202074
:1011B0007C002020A0002020A8002020A4002020C7
:1011C000AC0020209400202004002020900020204B
:1011D00030F8FFFF840020209C0020200800202001
:1011E0009800202088002020F0B526490B680420B4
:1011F00003400C688026344023490A6808251540BE
:101200000F6840223A4009683140002B0AD1002C77
:1012100008D0002D06D1002A04D1002902D10A20CD
:101220000E2229E01F4627432F437E427E41002F96
:1012300006D1002A04D0002902D10E200A221BE088
:10124000002B09D0002C07D1002D05D1002A03D195
:10125000002901D110220FE0481E81415042504127
:1012600006400A220E4003D11046002E03D103E0AF
:101270001020002E00D004227549086073480260D7
:10128000F0BDC04680130A4080330A40B0002020E1
:10129000B400202010B512480068C0B20B281ED13F
:1012A0003F48C1690F4A13887E2B13D813885C1CF2
:1012B00014800D4AD1540268D20708D00268D207C0
:1012C00005D00268D20702D00268D207F3D1C9B2B2
:1012D000816101E00020108004480121017010BDEF
:1012E00020901040CE0220204C022020CC02202052
:1012F0007047000080B5FFF705FC0120C0030449DA
:1013000008600449086004A0FEF756FF80BDC0468F
:1013100080E200E000E100E0426F61726420496E0B
:101320006974205B5B202A2A204C434B4642202ACA
:101330002A205D5D0D000000B0B57D21090241430A
:101340000E480368262206E0E41A051F2D6864197A
:10135000A2188A4210D21C460368A34208D103682F
:10136000A34205D10368A34202D10368A342F3D08C
:101370009C42E9D9E41AEBE7B0BDC04618E000E0B2
:1013800007490A68D20708D00A68D20705D00A6858
:10139000D20702D00A68D207F3D1C2B28A6170477D
:1013A0000891104082B0FFF7A5FFFEF79FFFFFF7FF
:1013B000C3F92148022202600125E90401601F48A7
:1013C0000192026001601E4E1F4F214CFFF74EF943
:1013D0003060401E0328F9D87844007940008744E3
:1013E0000C1D011217480560032038600A201749B8
:1013F0000860206017480560E8E73868002812D0C8
:1014000000203860E2E70F480560042038600A21B8
:101410000E4A116021600F490860D7E7094805604E
:101420000198386002E0074805603D600A200749DE
:1014300008602060CAE7C04680E200E000E100E00A
:101440004802202078002020D8022020B40020204C
:10145000B0002020D002202070B50125ED07040047
:101460004C4020D4441A01D2001B0919C60D4B0070
:10147000F2B2FF2A29D01B0E2CD000020C02284306
:101480002C43D31ADC40051910D2280A02D3401C81
:101490006D0611D0761EF6058019FF2A00DA70BDA0
:1014A000C00DC00570BD694000F07AF80120054309
:1014B000C541521C761CE8E764089C40C9016140A4
:1014C0008900E7D10124A043E4E71B0E440200D0C9
:1014D000034870BD002AFCD1C00FC00770BD00BF1B
:1014E0000000C07F70B5420064414B005C41120EA9
:1014F00039D01B0E38D0FF2A3CD0FF2B3AD0D2185F
:101500007F3A40024902400A490A4518ED010600A7
:101510004E43000A090A48430104731A4019190C82
:101520004318990F04D05B08012149075B1A521C2C
:10153000D80904D3401CF50301D19D0607D0FF2A2A
:1015400008D2D50506D0E4072043401970BD012517
:10155000A843F4E7002A01DCE00770BD2402FF2065
:101560002043C00570BD1B0EFF2A03D0FF2B01D006
:10157000E00770BDFF2636064500B54206D84D008F
:10158000B54203D8D218FF2A00D0E7E7004870BD63
:101590000000C07F70B50125ED0704004C4022D447
:1015A000441A02D26C40001B0919C60D4B00F2B25E
:1015B000FF2A4BD01B0E50D000020C02A8432C4334
:1015C000D31ADC40051B05D5AD0019D36D08761E76
:1015D000521E37D0F605280A01D2801970BD70411D
:1015E0006D0603D070BD6940FFF73CFF9C400902C7
:1015F0006140490001D0401E70BD0124A04370BD70
:101600006D081DD001202B0C01D12D0410302B0EA4
:1016100001D12D0208302B0F01D12D01001DAB0F80
:1016200001D1AD00801CEB0F01D16D00401C361ABA
:10163000121A6D00680AF5054019012A02DB70BD17
:10164000002070BDC036300AC00770BD1B0E4402BA
:1016500001D1FF2B00D1024870BD002AF0D070BD2F
:101660000000C07F08076300020000008F01000037
:101670000100000000000000000000000400000065
:1016800018000000003000000400000018000000F6
:101690000030000008000000800C00000001000085
:1016A00004000000180000000030000000000000EE
:1016B000D0160000000020201000000020010000D3
:1016C000E016000010002020D803000048010000B0
:1016D00000002041000091430000964300000000FC
:04000005000000C136
:00000001FF
